:020000040800F2
:10000000000800109D0100088D11000889110008EA
:100010008B1100088B1000085D1200080000000022
:10002000000000000000000000000000A311000814
:100030008D10000800000000A1110008A5110008A3
:10004000B7010008B7010008B7010008B7010008B0
:10005000B7010008B7010008B7010008B7010008A0
:10006000B7010008B7010008B7010008B701000890
:10007000B7010008B7010008B7010008B701000880
:10008000B7010008B7010008B7010008B701000870
:10009000B7010008B7010008B7010008B701000860
:1000A000B7010008B7010008B7010008B701000850
:1000B000C1110008B701000800000000B7010008E6
:1000C000B70100080000000000000000B7010008B0
:1000D00000000000B7010008B7010008B7010008E0
:1000E000B7010008B7010008000000000000000090
:1000F0000000000000000000000000000000000000
:1001000000000000000000000000000000000000EF
:100110000000000000000000B7010008B70100085F
:1001200000000000000000000000000000000000CF
:1001300000000000000000000000000000000000BF
:10014000B7010008B701000800000000000000002F
:10015000000000000000000000000000000000009F
:10016000000000000000000000000000000000008F
:10017000000000000000000000000000000000007F
:1001800000000000B7010008DFF80CD000F0BEFC52
:1001900000480047D11300080008001006488047B7
:1001A00006480047FEE7FEE7FEE7FEE7FEE7FEE75C
:1001B000FEE7FEE7FEE7FEE7B1110008890100084F
:1001C0000FB400B589B00BA800906A4603480A999D
:1001D00000F0B2FA09B05DF814FB00000000002046
:1001E0002DE9FF5F1D464FF0FF3BD5E901469146E3
:1001F0005F464FF00008A9697F1C01988847296A6B
:10020000824688470028F6D1BAF1FF3F0CD024F48B
:10021000C064002E19DD600614D5BAF12B0F09D089
:10022000BAF12D0F0ED103E0584604B0BDE8F09F9F
:1002300044F48064A9697F1C01988847761E824631
:10024000002E02DDBAF1300F03D0B9F1000F26D035
:1002500032E0A969761E44F400747F1C0198884737
:100260008246002E05DDBAF1780F06D0BAF1580F9C
:1002700003D0B9F1000F10D01EE0B9F1000F02D089
:10028000B9F1100F18D1A969761E24F400747F1CEF
:10029000019888478246102002E0082000E00A20EA
:1002A000814609E008FB0908A969761E44F4007438
:1002B0007F1C019888478246002E05DD494650463E
:1002C00000F02BFA0028EDDAE96901988847A005CB
:1002D00002D46FF00100A8E7E00725D1600613D52E
:1002E000600502D5C8F1000000E0404629680A1DFB
:1002F0002A600968220501D5087015E0220701D59A
:10030000088011E008600FE02868011D296000687E
:10031000210502D580F8008006E0210702D5A0F86B
:10032000008001E0C0F8008038467EE72DE9FF4FED
:10033000087883B09946FF2805D0491C2D2804D0A1
:100340000024002008E000200BE00124F9E700EB86
:10035000800003EB4000491C0B78FF2BF7D104B160
:10036000404200230293147819461D462D2C01D0DB
:100370002B2C04D1521C2D2C13D000240294AA46FD
:100380001478FF2C0FD00A25A3FB057801FB05810B
:100390004FF0000C03FB0C11521CE3194AEB010156
:1003A000EEE70124EAE7814453EA010002D019F59F
:1003B000C87F06DA03980021C0E9001107B0BDE844
:1003C000F08F0025AE4E2F46DFF8B882184600F0B9
:1003D00045FBCDE90001B9F1000002DAC9F10004E2
:1003E00000E004460023A74A1AEB030B42EB045A31
:1003F00012E0E00707D02A4633463846414600F06F
:100400004CFA074688462A4633461046194600F0FD
:1004100044FA05460E466410002CEAD1DDE90001DD
:10042000B9F1000F5A46534606DA00F0A8FA3A46E8
:10043000434600F0A4FA05E000F02FFA3A4643469E
:1004400000F02BFA029A0AB181F00041039AC2E946
:100450000001B3E72DE9FF4F1F468DB0D7E90146F4
:100460004FF0FF382E2045464FF000090B90B96938
:100470006D1C0E988847396A824688470028F6D155
:10048000BAF1FF3F0AD024F4D064002E11DDBAF196
:100490002B0F08D0BAF12D0F0BD102E0404611B05E
:1004A0008DE744F48064B9696D1C0E9888478246D4
:1004B000761E6946600501D52D2000E02B208DF8C1
:1004C000000001F1010B0DF1200809E0B9696D1C74
:1004D0000E98884782460F9844F40074761E056093
:1004E000002E02DDBAF1300FF0D00B998A453ED1D3
:1004F00044F0800406E00F99681CA9F1010944F456
:1005000000740860B9696D1C761E0E988847824693
:100510003028F0D02BE00B998A4505D1200603D472
:1005200044F08004761E18E0504601F025FD08B323
:100530000DF11302761EAAF1300044F400749345C5
:1005400006D20BF8010B200607D5A9F1010003E044
:10055000200602D409F101008146A00502D50F99B9
:10056000681C0860B9696D1C0E9888478246002E89
:10057000D1DC53E0002E51DDBAF1650F02D0BAF1A3
:10058000450F4BD1A00549D5B9696D1C24F44074C1
:10059000761E0E9888478246002E0CDD2B2804D04C
:1005A000BAF12D0F07D144F48074B9696D1C0E980F
:1005B00088478246761EE00501D52D2100E02B21DB
:1005C00008F8011BCDF82C8021E00DF12901761EE1
:1005D00044F4007488450CD2AAF1300010F0FF00FA
:1005E00088F8000002D10B99884509D908F1010863
:1005F00006E0E00501D5244801E042F20F70814693
:10060000B9696D1C0E98884782460F980560002EC8
:1006100004DD504601F0B0FC0028D6D1F9690E98EF
:100620008847FF208BF8000088F800000020069023
:1006300007904B466A4608A906A8FFF777FEA00573
:1006400002D46FF001002AE714F0240F0AD0E0076B
:1006500014D1DDE906123868031D3B600068C0E96B
:1006600000120BE0DDE9060100F034FA0146E00774
:1006700004D13868021D3A600068016028460EE720
:10068000000014400000F03FF1D8FFFF30B50B46EA
:10069000014600202022012409E021FA02F59D42B2
:1006A00005D303FA02F5491B04FA02F52844151E86
:1006B000A2F10102F1DC30BD2DE9F05F054600201A
:1006C00092469B4688460646814640241BE02846C3
:1006D00041464746224600F050FA53465A46C01A51
:1006E000914110D311461846224600F037FA2D1AD0
:1006F00067EB01084F4622460120002100F02EFA48
:1007000017EB00094E41201EA4F10104DFDC48462E
:1007100031462A464346BDE8F09F3A2800D2303899
:1007200020F02002412A01D3A2F13700884201D3F0
:100730004FF0FF3070470000024B9361024BD361D2
:1007400000F044BA611200084D0B00082DE9FE4F7D
:10075000804681EA0300C00F0C46009021F0004162
:1007600023F00045B8EB0200A94105D240462146DE
:1007700090461C460B46024623F00040104347D0EB
:10078000270DC7F30A00C3F30A510290401A0190E3
:1007900040286BDAC3F3130040F4801B00989246A4
:1007A00020B10023D2EB030A63EB0B0B01985946EF
:1007B000C0F14002504600F0D1F906460D465046C1
:1007C0005946019A00F0E9F910EB08006141002454
:1007D00087EA115284EAE7731A4340D0009A62B361
:1007E000019A012A4FEA075215DC001B61EB020156
:1007F0004FF0004202EA0752CDE90042001C41F5E9
:10080000801132462B4600F035FA03B0BDE8F08F78
:1008100040462146F9E7001B61EB0201001C41F54F
:10082000801300185B412018A2F5001747EB030165
:1008300040EAD570B6196D4111E06D084FEA3606F1
:1008400045EAC0754FEA0752001B61EB0201001C2C
:1008500041F5801149084FEA3000001951413246F4
:100860002B4603B0BDE8F04F00F0F5B90098012227
:1008700040000023D0EB020263EBE07300982146B6
:100880004FEAE074B8EB000061EB0401E9E783F0A4
:1008900000435BE781F0004158E72DE9FE4F81EA14
:1008A000030404F0004421F0004100944FF0000BD9
:1008B00023F0004350EA01045ED052EA03045BD007
:1008C000C3F30A54C1F30A552C44A4F2F33401943F
:1008D000A0FB0254C1F3130141F48011C3F31303CD
:1008E00043F4801301FB024400FB034E840A970A81
:1008F00044EA815447EA8357A4FB076802958D0AAE
:1009000005FB07854FEA932C04FB0C542705029D39
:100910004FEA065847EA1637B5EB08056EEB070CA9
:10092000870E920E47EA811742EA8312A7FB020163
:10093000B6EB0B0164EB00042B0D43EA0C335E189D
:1009400044EB1C50DA465146E7FB0201C5F31304A1
:100950004FEA0B3343EA14534FEA0432019C43EA53
:100960000603A4F10C040294009CCDE900B400F04D
:1009700081F903B0BDE8F08F00200146F9E72DE9C9
:10098000F04D81EA030404F0004B21F000451446C9
:100990004FF0000A23F0004150EA050220D054EA4B
:1009A00001021DD0C5F30A570246C5F31303C1F374
:1009B0001300C1F30A5640F4801543F48013A7EBEB
:1009C0000608101BD64608F2FD3873EB050002D36B
:1009D00008F1010801E092185B41B8F1000F03DA59
:1009E00000200146BDE8F08D00204FF4801106463E
:1009F00084460EE0171B73EB050705D3121B63EB50
:100A0000050306434CEA010C49084FEA30009218EE
:100A10005B4150EA0107EDD152EA030012D082EAAD
:100A2000040083EA0501084305D0101BAB4106D240
:100A30000122002306E000224FF0004302E06FF0A5
:100A4000010253101AEB06004CEB085110EB0A00A0
:100A500041EB0B01BDE8F04D00F0FDB80EB540F2E2
:100A6000334202920022CDE90022134600F002F93F
:100A700003B000BDC1F30A52C1F3130140F2FF33CA
:100A800041F480119A4202DA00200146704740F298
:100A900033439A42A2F2334202DC524200F06DB874
:100AA00000F05CB830B5041E71F1000404DB4FF0B7
:100AB0000044404264EB0101141E73F1000405DBA5
:100AC0001C464FF00043524263EB0403994208BFB7
:100AD000904230BD01F0004330B421F0004150EAB3
:100AE000010206D00A0DA2F56072C1F31301002ABB
:100AF00002DC30BC00207047440F44EAC104C1004E
:100B0000E01830BC00EBC25000F06EB8064C074D48
:100B100006E0E06840F0010394E8070098471034CD
:100B2000AC42F6D3FFF734FBC8320008F8320008B5
:100B3000094910B508784C1C18B1401E0870205C9B
:100B400010BD00210720ABBE207010BD02490878FF
:100B5000421C0A707047000008000020202A04DBB5
:100B6000203A00FA02F1002070479140C2F12003C0
:100B700020FA03F3194390407047202A04DB203AFF
:100B800021FA02F00021704721FA02F3D040C2F1AD
:100B900020029140084319467047202A06DBCB17F4
:100BA000203A41FA02F043EAE07306E041FA02F328
:100BB000D040C2F12002914008431946704700001E
:100BC000026811441378016018467047D1600449E7
:100BD00051610449116200211161114600F09EB873
:100BE000C10B0008110D00080029A8BF7047401C68
:100BF000490008BF20F00100704710B4B0FA80FC33
:100C000000FA0CF050EA010404BF10BC704749B16F
:100C1000CCF1200421FA04F411FA0CF118BF0121DF
:100C200021430843A3EB0C01CB1D4FEA00614FEABF
:100C3000102042BF002010BC704700EBC35010448E
:100C40000029A4BF10BC7047401C490008BF20F019
:100C5000010010BC704710B5141E73F1000408DACF
:100C6000401C41F1000192185B411A4301D120F070
:100C7000010010BD2DE9F04D92469B4611B1B1FA2D
:100C800081F202E0B0FA80F220329046FFF766FF70
:100C900004460F4640EA0A0041EA0B0153465A4611
:100CA000084313D0114653EA010019D0C8F140029D
:100CB0005046FFF762FF05460E46504659464246EB
:100CC000FFF74CFF084305D0012004E020463946D9
:100CD000BDE8F08D0020054346EAE0762C4337431B
:100CE0000A986305E40AA0EB08000022FD0A44EA22
:100CF00047540A3002D500200146E9E701051019E2
:100D00006941DDE9084500196941BDE8F04DA2E7F8
:100D1000C0B24FF4F05100F097B900002DE9F34F45
:100D20008BB04FF0000801F10C000C464FF0010BA6
:100D300046460DF1080A0190626901210198904729
:100D4000051E2DD0252D2CD0216A8847C0B162699F
:100D5000012101989047216A88470028F7D1411E58
:100D600062690198904700E0761CA1690B9888475A
:100D7000216A88470028F7D1E1690B988847DBE7AB
:100D8000A1690B9888470746A84201D1761CD3E792
:100D9000E1690B9888477F1C02D1B8F1000F6FD032
:100DA00046E1002762693D463946019890472A2866
:100DB00004D162690121019890470125DFF88492EE
:100DC0006269012101989047A0F130010A290AD2F5
:100DD0004F45E5DC07EB870100EB4107303FDFD4EF
:100DE00045F01005ECE7E90601D46FF000476C28E8
:100DF0000AD04C2814D0682815D06A280DD0742841
:100E00001CD07A281AD01DE0626901210198904710
:100E10006C2802D045F0040514E045F002050DE011
:100E200045F020050AE06269012101989047682891
:100E300002D045F0080505E045F40065626901212E
:100E400001989047C4E9015765283DD019DC58281E
:100E50007AD00CDC452837D004DC252826D0412860
:100E600031D131E046282FD047282CD12CE05B2807
:100E700077D0612828D063287CD0642823D15AE019
:100E8000D0E06F2848D008DC66281DD067281BD02A
:100E9000692821D06E2816D127E0702845D0732804
:100EA00068D0752847D078280DD14DE0A1690B98FE
:100EB0008847054625283FF469AFE1690B988847C4
:100EC0006D1C3FF46AAFB3E023466A466FF0010041
:100ED0000B99FFF7BFFA9EE045F040006060A8075D
:100EE00023464FF0000236D43EE0E8077FF447AFD8
:100EF0002068011D21600068290501D506701BE7E7
:100F0000290701D5068017E7A90703D5F117C0E91E
:100F1000006111E706600FE745F040006060A80738
:100F200023464FF0080216D41EE040F60E0125EAD3
:100F30000100606016E045F040006060A8072346AD
:100F40004FF00A0207D40FE045F040006060A807A8
:100F500008D5234610226FF001000B99AFF30080F3
:100F600059E007E0234610226FF001000B99FFF7CC
:100F700037F950E04FF000094F464B46632802D046
:100F80005B2806D040E0E80601D40120A0600127DC
:100F90003AE062690121019890475E2805D14FF03F
:100FA00001096269494601989047216939B90021D0
:100FB0000A46534643F82120491C0829FADBB0B3FE
:100FC000216969B9C11700EBD16253110AEB8301A2
:100FD00022F01F02821A01200B68904003430B602D
:100FE00062690121019890475D28E8D1B9F1000FAD
:100FF00009D00020514651F82020D24341F820204A
:10100000401C0828F7DB02AB224600976FF0010076
:101010000B99AFF3008000280CDA401C08D1BBF11B
:10102000000F05D04FF0FF300DB0BDE8F08FFFE7A7
:101030004046F9E7E90701D108F1010806444FF0FD
:10104000000B79E6CCCCCC0C7F2801D9002208E03B
:10105000064A02EB5002C007127800D1120902F0D2
:101060000F0201209040084070470000B62600089B
:101070000EB540F2334102910021CDE900110A463C
:101080000B46FFF7F7FD03B000BDFEE77047EFF337
:10109000108072B6FEE70000CC4901308A688B6888
:1010A0009B1A8342FBD37047B0B51B494FF47A7348
:1010B0004A68B2FBF3F20023013AB3EB126F1ED180
:1010C000C14CF02562600E4AD575A36007230F2836
:1010D000236014D813684FF0FF35C3F30223DC1EDE
:1010E00083F0070338BF0024042B28BF042305FA2C
:1010F00003F320EA0303A3401B01D3750860B0BDCE
:101100000CED00E00448054905A240680968C1F3F8
:101110000221515CC84070470C00002004100240BE
:10112000000000000102030410B50C490C480A68D5
:1011300002F00C03082B08D1C2F3834309A4896A87
:10114000D203E35C02D40F48584310BD01F00F01F5
:1011500008A2515CB0FBF1F0584310BD04100240EE
:1011600000127A0002030405060708090A0B0C0D99
:101170000E0F10100102030405060708090A0B0CE4
:101180000D0E0F1000093D00FEE7FEE7FEE74FF6EB
:10119000FF7200F017B841466FF07E4200F012B8BF
:1011A000704770478948816801318160704700BF8E
:1011B0000248016841F470010160704788ED00E069
:1011C0007047000070B5724B804D1C68E6690640A0
:1011D000864204BF002070BDAE68761A964284BF76
:1011E000032070BD26687607F0D5E669360707D478
:1011F000E6693605EAD5032020214FF4006202E0BB
:10120000012008220821226254E8002F22F4907263
:1012100044E800250DB11C68F6E71A6852E8024F51
:1012200024F0010442E80245002DF6D11A6E012A8D
:1012300008D11A6852E8004F24F0100442E8004533
:10124000002DF6D12022C3F8802000221A669A666B
:1012500083F87820C3F8841070BD00BFFEE700005B
:101260002DE9FC414A4D0020D5F8801020294CD1B1
:101270002221C5F88400C5F8801028660120534952
:10128000A5F85800D1F80880A5F85A00A86878B1E8
:10129000B0F1805F10D0B0F5805F11D1286948B9F6
:1012A00040F2FF1600270DF10704A5F85C600FE07F
:1012B000286938B9FF2606E0286918B13F2602E000
:1012C000002600E07F260DF107070024A5F85C60EA
:1012D000B5F85A00A0B120204146FFF758FF78B971
:1012E0002868808C304017B107F8010B02E024F821
:1012F000020B0027B5F85A000138A5F85A00E7E7B5
:101300002020C5F880009DF80700BDE8FC8100BFE3
:10131000F8B51F4D0090E86F202836D10026212017
:101320002A49C5F88460E8670120A5F850008C6858
:10133000A5F85200A868296980F4805050EA010796
:1013400068460CBF06460746B5F85200B8B1802083
:101350002146FFF71CFFB0B927B117F8010B296828
:10136000088506E036F8021B286800276FF35F2126
:101370000185B5F852000138A5F85200E4E7402095
:101380002146FFF704FF2020E8670098F8BD00BF62
:101390009C13002018B50C4A0C4B106898685168D3
:1013A000946801310C1B00941468E40303D5986819
:1013B00092688A1A0092009B4FF47A725343B3FBEF
:1013C000F1F100FB021018BD10E000E0E020002069
:1013D000CAB00020E34CE44A4FF6FF0104902068B5
:1013E00040F01000206010680840E0490843106099
:1013F0000020FFF759FEDE4E706940F00100706179
:10140000706900F0010012901298B06940F08050AD
:10141000B061B06900F0805012901298306810F0FE
:101420000C0F07D0306800F00C00082842D130685B
:10143000C0033FD456F8040C56F8040C102161F395
:10144000C70046F8040C306800F00C00082840D1B2
:10145000306800F47410B0F5601F5AD1206810F0A5
:10146000060F0AD12068022161F302002060206883
:1014700000F00700022840F0D480306820F0F0002F
:10148000306056F8040C800140F1CB8030680221B6
:10149000DFF86C3861F3010041F288313060986800
:1014A000326802F00C02082A37D09A68121A8A426F
:1014B000F6D9B6E0AF4801210160DFF84408816841
:1014C00056F8042C9207B7D48268521A022AF7D928
:1014D0001FE0A84900200866DFF82408826856F853
:1014E000043C9B0104D583689B1A022BF7D910E0BA
:1014F000326822F4741202F56012326001220A6628
:10150000816856F8042C9201A8D48268521A022AE3
:10151000F7D9EFF3108072B6FEE7206800F00700FD
:10152000032809D32068022161F3020020602068AB
:1015300000F00700022874D13068042161F30A200A
:101540003060306820F460503060FFF7EDFD3168A6
:101550000FF2B072C1F30311515CC840DFF8B41749
:1015600048600868FFF7A0FD3069DFF89457002154
:1015700004F5805240F480003061306900F480004E
:1015800012901298306940F4003030610120C5E9B2
:1015900008112982EA60E862326902F4003212928C
:1015A000129A95F8292052B985F82810326942F02C
:1015B00040023261326902F040021292129A022213
:1015C0006D4BDFF854776D4C4FF4807885F8292007
:1015D0006B4AD360136823F0180313604FF0FF3396
:1015E0009360136823F060031360136823F0800393
:1015F000136085F829000C204FF4E133C7E9081186
:10160000C7E90211C7E90681C7E90043C7E9041029
:10161000FB6F53B14FF0000C002500234FF0000E7C
:1016200064E0EFF3108072B6FEE70021554A4FF0F8
:10163000904C4FF000094FF0000E87F87810524F91
:10164000B06940F40030B061B06900F4003012902D
:101650001298306940F400303061306900F4003095
:1016600012901298BEF1100F37D0012000FA0EF838
:1016700048F2060018EA000F29D00320D2F804B07F
:1016800000FA09FA0F204AEA0B054FF0020B5560E9
:10169000156825EA08051560956825EA0A0595602C
:1016A00001F01C0500FA05F46FF0030000EA5E0388
:1016B000D859A0430724AC402043D8510BFA09F075
:1016C000DCF8003023EA0A031843CCF800000431A8
:1016D00009F102090EF1010EC4E7DFF83C76D7E903
:1016E00002ECD7E90430D7E90685396A2424234A75
:1016F00043EA0E03FC6718431468284324F00104EE
:101700001460224C1368234018431060506820F482
:10171000405040EA0C00506041EA0800916821F412
:10172000306108439060FFF7EDFCB5F5004F2FD115
:101730000D4DDFF8CC45114BA946E0B379684A0856
:1017400002EB40004FF6EF72B0FBF1F0A0F1100198
:10175000914200F2C0824FF6F0710140C0F34200A6
:10176000084427E0002002400CED00E00003FA05E9
:101770000410024000004242B71DC1040044004072
:10178000083002400400004820000048F369FFEFE1
:10179000E74DDFF86C45E74BA94660B179684FF635
:1017A000EF7200EB5100B0FBF1F0A0F1100191429B
:1017B00000F29182D860796A0020C7E91A000029F6
:1017C00059D0CA0707D0DB4BBA6A5B6823F40033F1
:1017D0001A43D84B5A608A0707D5D64BFA6A5B681A
:1017E00023F480331A43D34B5A604A0707D5D14BB1
:1017F0003A6B5B6823F480231A43CE4B5A600A0786
:1018000007D5CC4B7A6B5B6823F400431A43C94B72
:101810005A60CA0607D5C74BBA6B9B6823F480533E
:101820001A43C44B9A608A0607D5C24BFA6B9B6871
:1018300023F400531A43BF4B9A604A0613D5BD4B9D
:101840003A6CBC4D5B6823F4801313436B60B94B57
:10185000B2F5801F07D1B74B7A6C5B6823F4C003E5
:101860001A43B44B5A60090605D5B96C5A6822F47C
:10187000002211435960596821F4904159609968D8
:1018800021F02A019960196841F001011960C7F837
:101890008400D4F808801868000707D54FF40010BA
:1018A000FFF779FC002840F0EF813B68186840079B
:1018B00006D54FF48000FFF76EFC002840F0F08161
:1018C00020204FF0805241F28833DFF85444F8670B
:1018D000C7F880000020386687F878007866B1691C
:1018E00041F00101B161B16901F001011291129958
:1018F000D9F80010904981F81C030A604FF080422B
:10190000116821F45C7111608C498B6209234B6270
:101910000B6943F001030B61136843F0800313600C
:10192000874B4A681A404A600A6822F070020A60CF
:101930004A6822F080024A60DFF8E013B0F58C6F4D
:101940000AD00A5C130902F00F0204F8103004EB0D
:10195000400301305A70F1E7DFF8C8C300200FF2EE
:10196000C83240F6BE030026002500270024B4F547
:10197000C85F1AD0E10606BF61095CF821506D000E
:1019800047EA4606002D0DD4B6FA86F6DFF89073C6
:10199000961B395C96F8206031439842395404DC38
:1019A00001300026EF0F0134E1E7E34AE34800216C
:1019B000B1F57F7F03D0535843500431F8E708A9AD
:1019C0009FEDC78A9FEDC79A9FEDC7AA9FEDC7BA43
:1019D0009FEDC7CA9FEDC8DB00F57C7041F28834EB
:1019E000DAA60DF1140B0631039112A9009006310D
:1019F0000291D3A000F0DEF9DFF84CA30027012FFD
:101A000012D040F2E249D046B9F1000F09D0304679
:101A10005946FEF7D5FB0598A9F1010948F8040BD2
:101A2000F2E7A2440137EAE70120FFF735FBFFF7B1
:101A3000B1FC009C01904FF490616C200DF1200AE4
:101A40000A0412F5803F48DDBF4A09B254232746F5
:101A5000B0EE4A0AB0EE491AB0EE482A02EB810213
:101A600002F5A872002B11D492ED006A97ED003AAE
:101A700097ED014A97ED025A043A0C3F013B06EEFE
:101A8000032A06EE041A06EE050AEBE7B0EEC22AB8
:101A9000B0EEC11A47F6FF75B0EEC00ABDEEC22A1D
:101AA000BDEEC11ABDEEC00A12EE102AAA42A8BFAE
:101AB0002A4612AB23F8102003EB400211EE103A35
:101AC000AB42A8BF2B46538010EE103AAB42A8BFE2
:101AD0002B46938020390338B2E7BDF824C1DDF8E6
:101AE00020E1DFF83C924FF00008B8F1140F4CD021
:101AF0009748029A002150F828A06B2922D812A8F2
:101B000059F8015000EB410632F8080B0431B48853
:101B1000768832F80E3C2FFA85F72FFA95F544EACD
:101B2000004043EA064323FB07A320FB053AE4E712
:101B30000CED00E00044004000E100E00400004043
:101B4000F8BFFEFF7649C8EBC80009F170097FA60F
:101B500001EB0010C06E2FFA80F12FFA90F02EFBEF
:101B600001A10DF1200A2CFB00107AA111F8081038
:101B7000084147F6FF7120EAE070884228BF084616
:101B80002AF8180008F10108AFE74FF0000C0FF237
:101B9000D81EBCF1020F2CD07DA0039F002250F86C
:101BA0002C80102A17D837F8080B0AEB42045EF88D
:101BB00002600432A588648837F80E1C2FFA86F379
:101BC0002FFA96F645EA004041EA044121FB0381E1
:101BD00020FB0618E5E7704806A90EF1140E5BA677
:101BE00010F80C0048FA00F041F82C000CF1010C40
:101BF000CFE79DED060A9DED071A4148B8EEC00AF1
:101C0000B8EEC11A20EE0B0A21EE0C1A80ED000A84
:101C100080ED011AFFF7BEFB054660A000F0CAF890
:101C20000120FFF739FA5EA004A9FEF7C9FA04986B
:101C300041F28834C8287FF4DCAE2846FFF718FA52
:101C4000054601980F46FFF713FA02460B46284651
:101C50003946FEF71CFE53EC1D2BFEF790FE0246A4
:101C6000274850A390ED000A90ED011A4FA0B4EE62
:101C7000410AF1EE10FAC8BF18460B4600F09AF878
:101C80001E20FFF709FAB4E6384650F87C1B51E8ED
:101C9000002F22F0800241E80023002BF4D113E052
:101CA000386850E8001F21F4907140E80012002AC3
:101CB000F6D1384650F8801B51E8022F22F001027D
:101CC00041E80223002BF4D1002187F8781020216D
:101CD0000160FFF7DCF90020C7E91A00FFF7D7F928
:101CE00069C9F7C4005B82C0B1344AC01052A2393E
:101CF00033BE063A00BF00BF0000000080842E41C2
:101D0000E0200020000000000000000001020304A9
:101D1000060708090C0000209C1300204A27000831
:101D200020180020AC2B000800F0E010D020C030BC
:101D300040B0A05060809070CC2E00082414002089
:101D4000626567696E0000001400002025660000CF
:101D5000F826000805050504050A0605050404051E
:101D60000705050606050306FD190F050200A10F6C
:101D70000205050B060408043AFF09FFF40402FFFC
:101D8000FBF44600F9FFFD01F6FCFBF509FEFEF44D
:101D9000CA56FFFFEC650000482700086F6B000083
:101DA00025640000302C252E36660000312C252EAF
:101DB000366600000FB4054B10B503A9044A02981B
:101DC00000F0E2F810BC5DF814FB000011130008ED
:101DD0000400002002E008C8121F08C1002AFAD13E
:101DE00070477047002001E001C1121F002AFBD19B
:101DF000704700002DE9FF5F82B00021DDE904306B
:101E0000020DDDF840B0034318D044F61050A2F2A2
:101E1000FF3242431514119801281FD0A5EB0B0087
:101E2000401C5FEA000A4FF000064E4FDFF8389181
:101E3000B046504615D5CAF1000413E011980124AC
:101E40004AA3012801D16FEA0B010298119AC0E957
:101E50000031C0E9024206B0BDE8F09FCBF10000BE
:101E6000DFE704460021404A491842EB0450CDE91F
:101E7000001012E0E00707D032463B464046494694
:101E8000FEF70BFD8046894632463B461046194612
:101E9000FEF703FD06460F466410002CEAD1DDE98B
:101EA0000401DDE90023BAF1000F06DAFEF7F5FCC4
:101EB00042464B46FEF7F1FC05E0FEF760FD424668
:101EC0004B46FEF75CFD04460E460022284BFEF70B
:101ED000E9FD03D84FF0FF30014607E00022254B13
:101EE00020463146FEF732FCFEF7C4FD102409E01F
:101EF000002C0ADB0A220023FEF7DEFB039B3032B4
:101F00001A55641E50EA0102F2D1641C039AC4F10E
:101F100011031444119A012A03D0012208430DD160
:101F20000AE0084304D000204FF0110B119072E733
:101F3000A3EB0B056D1E0DE05B4504DD4FF00002C9
:101F400005F1010504E003DA4FF00002A5F10105F7
:101F5000002AECD002981199C0E90231C0E900458D
:101F600079E70000000014400000F03F300000005E
:101F70000000F0430000E03F30380A2801D2012081
:101F800070470020704700002DE9FF4F95B09B4639
:101F90008946064600250FE2252877D100242746EA
:101FA000F84A0121059400E0044316F8013F203B64
:101FB00001FA03F01042F7D130782A2811D06FF0DF
:101FC0002F033078A0F13002092A16D8059A44F080
:101FD000020402EB820203EB42021044761C0590DD
:101FE000EFE759F8042B0592002A03DA504244F433
:101FF0000054059044F00204761C30782E2816D147
:1020000016F8010F44F004042A280DD06FF02F02B7
:102010003078A0F13003092B09D807EB870302EBD6
:102020004303C718761CF3E759F8047B761C307815
:102030006C280FD006DC4C2817D068280DD06A28F1
:1020400014D104E0742810D07A280FD10DE044F4A4
:1020500000140AE044F4801401E044F4401472785F
:10206000824202D104F58014761C761C30786628F2
:102070000BD013DC582877D009DC002875D0452810
:10208000F6D04628F4D047281AD19DE118E06328FD
:1020900035D0642879D0652812D195E1702873D0A5
:1020A00008DC6728F1D069286FD06E280DD06F2822
:1020B00006D1B5E073282CD0752875D0782874D057
:1020C0005A46179990476D1C75E1C4F302500228D7
:1020D00009D003280DD0D9F8001004280DD00D60C8
:1020E00009F1040967E1D9F80010EA17C1E90052C3
:1020F000F6E7D9F800100D80F2E70D70F0E719F857
:10210000041B8DF8001000208DF80100EA46012024
:1021100003E059F804AB4FF0FF3061074FF00001C6
:1021200002D40DE008F101018846B9420FDA80457A
:10213000F8DB1AF808100029F4D108E008F10101D1
:1021400088468142FADB1AF808100029F6D1059872
:102150005B46A0EB080721463846179A00F094FA30
:10216000284400EB080507E04DE029E10DE01AF8EE
:10217000010B5A4617999047B8F10108F7D25B4610
:1021800021463846179A13E142E00A220092C4F32E
:1021900002524FF0000A022A08D059F804CB032A51
:1021A0004FEAEC710AD00DE029E02AE009F10701BD
:1021B00021F00702F2E802C1914609E00FFA8CFC17
:1021C0004FEAEC71042A03D14FFA8CFC4FEAEC7110
:1021D000002907DA0A460021DCF1000C61EB02015C
:1021E0002D2202E0220504D52B228DF804200122A5
:1021F00003E0E20701D02022F7E7904659E00A21E8
:1022000002E010220DE010214FF0000A00910BE0D7
:1022100010224FF0000A44F004040827009203E063
:1022200008224FF0000A0092C4F30252022A05D09D
:1022300059F804CB0021032A08D009E009F107016D
:1022400021F00702F2E802C1914605E01FFA8CFC7A
:10225000042A01D10CF0FF0C4FF00008220728D50A
:10226000702806D0009B83F0100353EA0A0305D0C0
:102270000EE040228DF80420012208E05CEA010211
:1022800006D030228DF804208DF8050002229046F9
:10229000009B83F0080353EA0A030AD15CEA0102B7
:1022A00001D1620705D530228DF804204FF00108D6
:1022B0007F1E582804D034A003900EA802900DE091
:1022C00036A0F9E753466046009AFEF7F5F98446D2
:1022D0000398825C0298401E029002705CEA010042
:1022E000F0D1029806A9081A00F1200A600702D569
:1022F00024F4803400E00127574502DDA7EB0A00F3
:1023000000E0002000EB0A01009005984144401ACB
:102310000590E00306D45B462146179A059800F025
:10232000B3F90544002706E001A85A46C05D179995
:1023300090476D1C7F1C4745F6DBE0030CD55B46E0
:102340002146179A059800F09FF9054404E03020D3
:102350005A46179990476D1C0099481E0090002915
:10236000F5DC08E0029802995A460078491C02916F
:10237000179990476D1CBAF10001AAF1010AF1DC2E
:1023800065E1000009280100303132333435363739
:1023900038396162636465660000000030313233B1
:1023A0003435363738394142434445460000000051
:1023B00000F058F90544761C307800287FF4ECAD25
:1023C00019B02846BDE8F08F620700D4062709F14E
:1023D000070222F0070CFCE80223E14603F0004864
:1023E0005FEA080C02D00FF2702C0DE05FEA045C8B
:1023F00002D50FF2682C07E05FEAC47C02D00FF22E
:10240000602C01E0AFF2700C4FF0FF3823F0004376
:10241000CDF850C065280CD006DC452809D04628E8
:102420001DD047283DD13DE0662818D067287ED1D1
:1024300038E00021112F01DB112000E0781CCDE9EC
:10244000000106A90EA8FFF7D5FCDDE90F010E9AE1
:1024500003910021009207F1010A04914DE04FF031
:1024600000400097CDE9011006A90EA8FFF7C2FCB5
:10247000DDE90F0203920E9B11990022DDF80CA0FA
:102480000093049211B9791C00EB010AB7EB0A0022
:1024900004D4C0F1FF3007F1010A0490AAEB070051
:1024A000019044E0012F00DA01270021112F01DD06
:1024B000112000E03846CDE9000106A90EA8FFF77B
:1024C00099FCDDE90F010E9A03910021049100921D
:1024D000BA4621070CD40399514500DA8A46BAF16D
:1024E000010F05DD009AAAF10101515C302908D0E5
:1024F000B84202DA10F1040F06DA0121CDE9011029
:1025000015E0AAF10101E9E7002805DC049901447E
:102510000491AAEB000102E0411C514500DD8A460E
:102520000499401A401C01904FF00040029020078F
:1025300004D40198504501DBCDF8048000208DF8CB
:102540004F0002980DF14F07B0F1004F25D02B201E
:102550000E9002984FF0020800280CDA40420290D8
:102560002D200E9007E00A210298FEF78FF83031F7
:10257000029007F8011DB8F10001A8F10108F2DC92
:1025800002980028EFD1791E0E980870307800F07C
:10259000200040F0450007F8020D12A8C01B00F112
:1025A00007081498007800B1012000EB0A01019897
:1025B00001EBE07105984144401A401E0590E0038C
:1025C00006D45B462146179A059800F05DF805444D
:1025D0001498007818B15A46179990476D1CE0037B
:1025E00024D55B462146179A059800F04DF805441E
:1025F0001CE00498002807DBDDE90301884203DDC5
:102600000098405C179901E0179930205A4690478E
:10261000049805F10105401C04900198401E0190AA
:1026200004D12E205A46179990476D1CBAF100012B
:10263000AAF1010ADDDC05E017F8010B5A461799EB
:1026400090476D1CB8F10001A8F10108F4DC5B466D
:102650002146179A0598ABE62D0000002B000000DC
:10266000200000002DE9F041044600251E461746D3
:10267000880404D405E039462020B0476D1C641E50
:10268000F9D52846BDE8F0812DE9F0410446002542
:102690001E469046C80301D5302700E02027880455
:1026A00004D505E041463846B0476D1C641EF9D597
:1026B0002846BDE8F081DDDDDDDDDCBBBBDDDDDD39
:1026C000DDDDDDDDDDDD988888888888888877779E
:1026D0007777778888888555555666666666666614
:1026E0006666666888888333333222222222222259
:1026F00022222228888D0000C41B00008A120000BC
:10270000A812000023110000690F000019F3FFFF59
:10271000171A0000B90A0000C2210000C41100000D
:1027200071110000C0110000080F0000011E000020
:10273000D8200000CE1A00006314000046150000E7
:1027400025240000E1170000060621F2821E002663
:1027500012C2E2EAB2202E62415A3F2A2722C15118
:102760009111177252547A2114C101BE482325C217
:1027700091FE332E27D2D19AF8131E11B27A4C1B38
:102780001EF01B71B1F216171AA1A1B4C71D1931A1
:1027900051CF1A1F1581A1ABD21615B1619BF92F2C
:1027A0001081617CBD1B1DE181F89F132371E1B392
:1027B0009C1A1E91612DF80A1C9011A1919FB51DC4
:1027C0001BB1E1C6C3191BF1D1AA55191071D175FE
:1027D000531D1F01C1F8751F1331B105A81B1281CC
:1027E000E16D7C151C01419D4D1917E161B6641422
:1027F0001FD0164190470E1D1071B117291914F101
:10280000416766161FC1A1B1DB101F3151B7D51545
:102810001801A16F801515F18132A11A1231913C76
:10282000AA151EA1910FAA1D16F016D0B13F9B113B
:10283000125141977D171C91B14521101CD151F5C2
:102840002C0919E151358D1E1ED06031E10E199110
:10285000617F501218A0700B7A131721511C260D9E
:1028600014D0FED18E7189C01EEFDEE8590DF04004
:102870004F2ECEFDFA6EE1D45107D3F22F2F700008
:102880000A1FED0FDDEF038FFF1A93D6D45071FBB3
:10289000ADE7D19F9044071BFC5014A2B2A2FC2DBF
:1028A000129141C1AD132F52E24022182AF1512456
:1028B0006C201F31811B911B14B1C1F388172211A9
:1028C0001220502F27C2824655132021920D3C150D
:1028D0001020122051E5261902D161FA2C0F00F0C8
:1028E000F00805141FA190AA3C0C12E051145719CE
:1028F0000091604624170DD1908A4E161A11B0BF70
:10290000EA0D03A071B3451708B02012B2B8CE2A61
:102910002FC24152DC271C2222CB852F1372B29981
:10292000A42D29D152C1CC2C2DA212CF502F15127B
:10293000822AB4212A4242A27C282442B279451E2E
:1029400027D01E0121A7501A160191DF921D1EF1FA
:10295000F1511C131011318B011514F13149091C6F
:102960001841015BBF1116D17198CE1C19D171FFAE
:10297000591A1BD171DDF2101FC012C171A1B51916
:102980001CE1B123231F1A3111FB5F171B11D1D199
:1029900049141371D15E050A06B1D1337D151F515B
:1029A00081D2621018916183F6121021A1AB4B1FE6
:1029B00019500E60D10FB2111E01E1223E1912F121
:1029C00021DD161B164140FF821919F0C182E60F66
:1029D0001071305C8D1415A101695D1814615138B6
:1029E00036101DF14160870817300E5161310A1B06
:1029F000F131F075AD161361B08E14110111604103
:102A0000D607064031B808FA0480316676070CA074
:102A100060BDC80719A1B0F45E1E2E7161D0F70821
:102A20001CD023C222950E2323729229382D16A280
:102A300052753D2421D2622BAF2213C2F28DF825AC
:102A40002212E16D1B2029D232CB35282BE2E2A4E1
:102A5000ED2321F23208482B299020A2130F2F20BA
:102A600028C3B209242F1662A2A2632C224242A7D5
:102A700064201BC1D2FD2F2F2402A247672626B255
:102A8000C3CDBF3020A2B2E6E8261392425FF02801
:102A900021301242C2EBD62D1EF1F1A8B0141FE175
:102AA0009148D9291EE2D141DD1E19B1D2C70A1DB4
:102AB0001141D19D9C201472126C19291A2161EDCB
:102AC00086192B31A10F4F1E2E801801B1E1621A19
:102AD0001A5101278B1B1711319C791D1BE1A1870E
:102AE000961F172121E48D1011B1F1F1011B1BB1CB
:102AF00041CB1B1015D11141A41810E2D109781C4B
:102B0000199014D161F1B51F1D3161CCBE011DB109
:102B100081DA07171AA1E1880C1019C171680B102E
:102B20001341A14DC01A1B424141A61A1E71B15F4B
:102B3000151F1F6151A3811910102212C2BC9C33B2
:102B40003E52F39120292F32A2735F2324E2A37512
:102B5000AE3B3DB3E31E9B2E211363FB103A3BC2F9
:102B6000E2514F2D3A22920FAA363A92D2021939E7
:102B7000352016B0A1105821094191CE17171831F0
:102B800011D0CE2D137141E8F31A103101F7371926
:102B90001550B1D55115141161D58A1D13A2C14923
:102BA0007514141141A95E1910F000002A29932010
:102BB00069D281929C0B4D226CE84AE23E5FFBCFCA
:102BC000FB3DCF7DF7F979FF4FFFE7CFC0FBF9CF92
:102BD000A69A1490A01240414D1C6A49531244A871
:102BE0003F7FDBCF66FEFEF99FF7BFFF349300F017
:102BF0006B074C953F9FCDCF7FC6BFBF05E779DE02
:102C0000329B740759121C21451C2525D841CD0043
:102C1000490B4A2ADFCC8102FB33FDF7DEFCF3E7E8
:102C20003AD9CF7FEFFE9C48C7EF3FE9FFC4FB11C5
:102C3000FFFD3773F3F7CFA7CF20FD96B9F3CFC7CA
:102C4000CFFBFD9E7DFFE713DE7F7EF633E6E36478
:102C50006E9B7150EF5FEE7C7CDF5F9FE7BABE8FAB
:102C6000F3FDEB73D777FBFA97A97F5F3E77FDF310
:102C7000F9FBF7B7BD5EE3FFFFFAFEFD5FD777FE16
:102C8000FEFEFDFDF7399FBEFFD7FDDF7DA7FC5F90
:102C90007FFC5DDCBFBF67DEF7F3CFDFEFFFF39FA5
:102CA000FFE7F8DFAC7DCEBFCC36D8FCB389FA1C89
:102CB0004E73DC3D4336F15D464C40A13409DC8562
:102CC000DF99679367EEF3CF293FEFBDD9F7FDF3A7
:102CD000492EBCE74524E3B0450449A450424924A9
:102CE0002D09AC8938690D48CE39A62DE73FBFF7CD
:102CF000FF7DCEEF7FEEFFEFFFFCF73F7EBFFFCF04
:102D00003EE23EE79F67DF7D3E7E9EF7496BA67CF5
:102D1000350928DC49900E4825094A5AC946830AD4
:102D2000EEB0497774C266FABE3CB39FE1EFFF7C18
:102D3000FFF9FDDEEFFBF09E83BBA4A1059232D923
:102D400030EC714CCCEA0F47FF7E3FF8F9F7CFB378
:102D50007EBFFFF3E13DFFF3E3F37D7F83BDFF3CE7
:102D6000718EBF12CDC8F42BFCFBC3BD4EEBC1442A
:102D70009F77F77F4F7EFFF3FCBF7FDF7C7FFEFFF7
:102D80007FBFFFFC9EEF1FEE7DFBEF7FC1C43F7F47
:102D90007D9E79CFE7BCFF39FFBC7F7FFB87F79F24
:102DA0007F9EFEFD2025C5EFAA649980E283A4736F
:102DB0003BE9B76719FC5193B3FFFEFB7FFEFECFE3
:102DC000FE7BFB3F0EBFE77F1D8A92EE7D47367488
:102DD000E799F7337E9E3DDCF7FCF9EE5FFB9F9FA2
:102DE000FFFB7F3EFBDF7F9C7EFE7FFEDFDFE7F3A6
:102DF0009F67F9E3993DB4F7B943CEE9E709EE2DB2
:102E000092F2E7AB0C66DE44E0DF17F63F3FBFFF10
:102E1000FFF93FF79F9FFBFC7FEEBDFF9EC39E1C0B
:102E2000FC717B9EAF9FA7D1F3F7E7739FDFEF9D08
:102E3000E97C4EF3A0A44A9A490992202490A480E8
:102E4000F9FE81A8F9EFEDF3F3E9F9FFD3FCFCEA11
:102E50007AF07D9F10D4FB79AE9226E3E04C0547D3
:102E6000624D1C6ADFF3DC07CFEFFFFBFBBF73CCC7
:102E7000FFE7DFFFF9FF793F7FFFFBFFDFFF93FDF8
:102E8000BDF7CFE74EF33FFF98E7B57F7BD277E7FB
:102E900077DFCFF3BB3DD3F06852129C736256A428
:102EA0003DE7269DEF993D53977FBEEFBFEFFB991E
:102EB0007FDECF9FDCDBFFE7CFBFFFE7FE67FFE7EB
:102EC000F8FDFC7FCEB9247700E067BFE13085C50F
:102ED000AA29D8C34D75A140B90D31465F819EC363
:102EE000E4C071C263F390C6E8B83EC3587DD542D2
:102EF0001F278D466F60E9C211261643A1D7B7C5BB
:102F0000740E46C2BD83C243B21227C52A1E67C3D0
:102F1000E300C843EEECFC457A5240C2DA2B1B4377
:102F2000510995C6FCA463C3A89124429B6A9945A4
:102F3000F103DDC20A6CC1C09C7796C44C59444071
:102F40006D8A4043A9E3D6C52419C8433D87FC4395
:102F50000C31A9C507C486438E3BAF43018C48455D
:102F600050F98542AF727D415CE309C6CEFD87C34F
:102F7000A84EB3C3F3FE4EC5E068F3422A73B5C34F
:102F8000E07780C52429F843556026C3B31EC0C529
:102F900052A54F443717864221D5FEC551001B4428
:102FA000D56D53C20C23B44517739A43938C01C457
:102FB000D954F2C5639188C335D543C4486BDDC588
:102FC000568F66C4E2DE1BC4C21E2B4692CCA0C440
:102FD000291FF1C3E2621BC6AC4BB2C4FD10D14243
:102FE0001EC5FA449C1492C440A80A4490952E45EC
:102FF000A6863BC4499851441C7A23C60FA79EC29B
:10300000C75D9944E1403246947EC94377CFAC44D2
:1030100096CD0EC631DE9944A4996944DFD60645A3
:10302000A1ADF34449CC0944551A03C642DBED4433
:10303000AFD6D0C3189F4046469EC444B50143C492
:10304000784980C602E18144E134ADC43AD2B74444
:103050006F910D4317FFD5C493A944C627286CC4AC
:10306000859DC8C4C3BD05466958B1C45DA294C45A
:10307000AAD866C6CC960BC534B1FDC3DA668FC537
:10308000A26116C56483AE43E83624457E67D6C484
:10309000A14B8C4404C78DC5D2AB94C4D705C3449F
:1030A000D00FFC4299E947C39618F3443043BDC59D
:1030B00099BC21440599D444B262E7C4EBB1E2441F
:1030C00050EF874440C818C4DC342045B69503440B
:1030D000D301BB4505CA1E4512AFDCC3313729C534
:1030E00012310D4566219AC4F6701FC556DFA944FA
:1030F0005F34D1C4596F00468963AF420B28FBC4CB
:10310000880DD8C53BFC8AC4883DDAC423C22F454C
:103110008E2708C5FC9D8AC4C8A682C5418418C5EF
:10312000E96C73C338CC3DC594FD15C5664714449E
:10313000C4B11FC557E2CDC44F459F449F71E944B8
:1031400059DC7BC4D41ABE4431F66FC6D1DD52437C
:103150006F22DF4440658C45B51FA8440200A5449A
:10316000168D85C612F5004507A34844E52950434E
:103170004B54194504314E42049CE8C5E54FFB44CD
:10318000ACD934C41CB49BC635B4A54457E8A3C419
:103190003E20E445477DDF4312B1C3C4404283C6AD
:1031A00019B22BC469B5CAC445E8E04223A7B2C42A
:1031B0003E4196C42E6B08C60E42EEC4F41C06C4F3
:1031C000C268CEC50AF609C57C224643309BAEC50F
:1031D000FE51B5C48DBC6244FBDA7AC583A04FC4EE
:1031E000BE4A9B447755A3C5F6BFB1438B0CA94497
:1031F000A27D5AC50B8F8344AE198E446B239C4528
:10320000AA92D74451A9F443D46002C6C3F8C34478
:103210000DB285437E2BF5C54088934406F111C459
:103220005C80DD45B6A3D043196083C4C328EFC5D5
:103230007C7DC1C3BED388C448CAA5C59C5336C4CF
:10324000413751C449FAD045ACED9FC4EB9051C30E
:1032500071C497C63D5D96C4FEE9CB4369F1C34591
:103260000DED1DC4F2CC59440A6FCEC224A98A4385
:10327000642B4444D67D5BC6C4338244EDA9144418
:103280008909B3451A1E8D44B87A11C3D8E2E5C541
:10329000E8C52944021B12C4A93BB844A71C9B42A1
:1032A0001E4F32C4838B8EC5AB9827C4BBAD10C4F0
:1032B000E045D542E4F624C47C731EC36F0B80C581
:1032C0007141CAC3E2E43F43F83200080000002025
:1032D00014000000D41D00080C3300081400002066
:1032E000FC200000E41D00080C3300080000001062
:1032F00000080000E41D00080000000000000000BD
:0C330000000000001000000000127A0025
:040000050800018965
:00000001FF
